{
  "_format": "hh-sol-artifact-1",
  "contractName": "Card",
  "sourceName": "contracts/Card.sol",
  "abi": [
    {
      "inputs": [
        {
          "internalType": "string",
          "name": "baseURI",
          "type": "string"
        }
      ],
      "stateMutability": "nonpayable",
      "type": "constructor"
    },
    {
      "anonymous": false,
      "inputs": [
        {
          "indexed": true,
          "internalType": "address",
          "name": "owner",
          "type": "address"
        },
        {
          "indexed": true,
          "internalType": "address",
          "name": "approved",
          "type": "address"
        },
        {
          "indexed": true,
          "internalType": "uint256",
          "name": "tokenId",
          "type": "uint256"
        }
      ],
      "name": "Approval",
      "type": "event"
    },
    {
      "anonymous": false,
      "inputs": [
        {
          "indexed": true,
          "internalType": "address",
          "name": "owner",
          "type": "address"
        },
        {
          "indexed": true,
          "internalType": "address",
          "name": "operator",
          "type": "address"
        },
        {
          "indexed": false,
          "internalType": "bool",
          "name": "approved",
          "type": "bool"
        }
      ],
      "name": "ApprovalForAll",
      "type": "event"
    },
    {
      "anonymous": false,
      "inputs": [
        {
          "indexed": true,
          "internalType": "address",
          "name": "previousOwner",
          "type": "address"
        },
        {
          "indexed": true,
          "internalType": "address",
          "name": "newOwner",
          "type": "address"
        }
      ],
      "name": "OwnershipTransferred",
      "type": "event"
    },
    {
      "anonymous": false,
      "inputs": [
        {
          "indexed": true,
          "internalType": "address",
          "name": "from",
          "type": "address"
        },
        {
          "indexed": true,
          "internalType": "address",
          "name": "to",
          "type": "address"
        },
        {
          "indexed": true,
          "internalType": "uint256",
          "name": "tokenId",
          "type": "uint256"
        }
      ],
      "name": "Transfer",
      "type": "event"
    },
    {
      "inputs": [],
      "name": "MAX_PER_MINT",
      "outputs": [
        {
          "internalType": "uint256",
          "name": "",
          "type": "uint256"
        }
      ],
      "stateMutability": "view",
      "type": "function"
    },
    {
      "inputs": [],
      "name": "MAX_SUPPLY",
      "outputs": [
        {
          "internalType": "uint256",
          "name": "",
          "type": "uint256"
        }
      ],
      "stateMutability": "view",
      "type": "function"
    },
    {
      "inputs": [],
      "name": "PRICE",
      "outputs": [
        {
          "internalType": "uint256",
          "name": "",
          "type": "uint256"
        }
      ],
      "stateMutability": "view",
      "type": "function"
    },
    {
      "inputs": [
        {
          "internalType": "address",
          "name": "to",
          "type": "address"
        },
        {
          "internalType": "uint256",
          "name": "tokenId",
          "type": "uint256"
        }
      ],
      "name": "approve",
      "outputs": [],
      "stateMutability": "nonpayable",
      "type": "function"
    },
    {
      "inputs": [
        {
          "internalType": "address",
          "name": "owner",
          "type": "address"
        }
      ],
      "name": "balanceOf",
      "outputs": [
        {
          "internalType": "uint256",
          "name": "",
          "type": "uint256"
        }
      ],
      "stateMutability": "view",
      "type": "function"
    },
    {
      "inputs": [],
      "name": "baseTokenURI",
      "outputs": [
        {
          "internalType": "string",
          "name": "",
          "type": "string"
        }
      ],
      "stateMutability": "view",
      "type": "function"
    },
    {
      "inputs": [
        {
          "internalType": "uint256",
          "name": "tokenId",
          "type": "uint256"
        }
      ],
      "name": "getApproved",
      "outputs": [
        {
          "internalType": "address",
          "name": "",
          "type": "address"
        }
      ],
      "stateMutability": "view",
      "type": "function"
    },
    {
      "inputs": [
        {
          "internalType": "address",
          "name": "owner",
          "type": "address"
        },
        {
          "internalType": "address",
          "name": "operator",
          "type": "address"
        }
      ],
      "name": "isApprovedForAll",
      "outputs": [
        {
          "internalType": "bool",
          "name": "",
          "type": "bool"
        }
      ],
      "stateMutability": "view",
      "type": "function"
    },
    {
      "inputs": [
        {
          "internalType": "uint256",
          "name": "_count",
          "type": "uint256"
        }
      ],
      "name": "mintNFTs",
      "outputs": [],
      "stateMutability": "payable",
      "type": "function"
    },
    {
      "inputs": [],
      "name": "name",
      "outputs": [
        {
          "internalType": "string",
          "name": "",
          "type": "string"
        }
      ],
      "stateMutability": "view",
      "type": "function"
    },
    {
      "inputs": [],
      "name": "owner",
      "outputs": [
        {
          "internalType": "address",
          "name": "",
          "type": "address"
        }
      ],
      "stateMutability": "view",
      "type": "function"
    },
    {
      "inputs": [
        {
          "internalType": "uint256",
          "name": "tokenId",
          "type": "uint256"
        }
      ],
      "name": "ownerOf",
      "outputs": [
        {
          "internalType": "address",
          "name": "",
          "type": "address"
        }
      ],
      "stateMutability": "view",
      "type": "function"
    },
    {
      "inputs": [],
      "name": "renounceOwnership",
      "outputs": [],
      "stateMutability": "nonpayable",
      "type": "function"
    },
    {
      "inputs": [
        {
          "internalType": "address",
          "name": "from",
          "type": "address"
        },
        {
          "internalType": "address",
          "name": "to",
          "type": "address"
        },
        {
          "internalType": "uint256",
          "name": "tokenId",
          "type": "uint256"
        }
      ],
      "name": "safeTransferFrom",
      "outputs": [],
      "stateMutability": "nonpayable",
      "type": "function"
    },
    {
      "inputs": [
        {
          "internalType": "address",
          "name": "from",
          "type": "address"
        },
        {
          "internalType": "address",
          "name": "to",
          "type": "address"
        },
        {
          "internalType": "uint256",
          "name": "tokenId",
          "type": "uint256"
        },
        {
          "internalType": "bytes",
          "name": "_data",
          "type": "bytes"
        }
      ],
      "name": "safeTransferFrom",
      "outputs": [],
      "stateMutability": "nonpayable",
      "type": "function"
    },
    {
      "inputs": [
        {
          "internalType": "address",
          "name": "operator",
          "type": "address"
        },
        {
          "internalType": "bool",
          "name": "approved",
          "type": "bool"
        }
      ],
      "name": "setApprovalForAll",
      "outputs": [],
      "stateMutability": "nonpayable",
      "type": "function"
    },
    {
      "inputs": [
        {
          "internalType": "string",
          "name": "_baseTokenURI",
          "type": "string"
        }
      ],
      "name": "setBaseURI",
      "outputs": [],
      "stateMutability": "nonpayable",
      "type": "function"
    },
    {
      "inputs": [
        {
          "internalType": "bytes4",
          "name": "interfaceId",
          "type": "bytes4"
        }
      ],
      "name": "supportsInterface",
      "outputs": [
        {
          "internalType": "bool",
          "name": "",
          "type": "bool"
        }
      ],
      "stateMutability": "view",
      "type": "function"
    },
    {
      "inputs": [],
      "name": "symbol",
      "outputs": [
        {
          "internalType": "string",
          "name": "",
          "type": "string"
        }
      ],
      "stateMutability": "view",
      "type": "function"
    },
    {
      "inputs": [
        {
          "internalType": "uint256",
          "name": "index",
          "type": "uint256"
        }
      ],
      "name": "tokenByIndex",
      "outputs": [
        {
          "internalType": "uint256",
          "name": "",
          "type": "uint256"
        }
      ],
      "stateMutability": "view",
      "type": "function"
    },
    {
      "inputs": [
        {
          "internalType": "address",
          "name": "owner",
          "type": "address"
        },
        {
          "internalType": "uint256",
          "name": "index",
          "type": "uint256"
        }
      ],
      "name": "tokenOfOwnerByIndex",
      "outputs": [
        {
          "internalType": "uint256",
          "name": "",
          "type": "uint256"
        }
      ],
      "stateMutability": "view",
      "type": "function"
    },
    {
      "inputs": [
        {
          "internalType": "uint256",
          "name": "tokenId",
          "type": "uint256"
        }
      ],
      "name": "tokenURI",
      "outputs": [
        {
          "internalType": "string",
          "name": "",
          "type": "string"
        }
      ],
      "stateMutability": "view",
      "type": "function"
    },
    {
      "inputs": [
        {
          "internalType": "address",
          "name": "_owner",
          "type": "address"
        }
      ],
      "name": "tokensOfOwner",
      "outputs": [
        {
          "internalType": "uint256[]",
          "name": "",
          "type": "uint256[]"
        }
      ],
      "stateMutability": "view",
      "type": "function"
    },
    {
      "inputs": [],
      "name": "totalSupply",
      "outputs": [
        {
          "internalType": "uint256",
          "name": "",
          "type": "uint256"
        }
      ],
      "stateMutability": "view",
      "type": "function"
    },
    {
      "inputs": [
        {
          "internalType": "address",
          "name": "from",
          "type": "address"
        },
        {
          "internalType": "address",
          "name": "to",
          "type": "address"
        },
        {
          "internalType": "uint256",
          "name": "tokenId",
          "type": "uint256"
        }
      ],
      "name": "transferFrom",
      "outputs": [],
      "stateMutability": "nonpayable",
      "type": "function"
    },
    {
      "inputs": [
        {
          "internalType": "address",
          "name": "newOwner",
          "type": "address"
        }
      ],
      "name": "transferOwnership",
      "outputs": [],
      "stateMutability": "nonpayable",
      "type": "function"
    },
    {
      "inputs": [],
      "name": "withdraw",
      "outputs": [],
      "stateMutability": "payable",
      "type": "function"
    }
  ],
  "bytecode": "0x60806040523480156200001157600080fd5b506040516200269d3803806200269d83398101604081905262000034916200023e565b6040518060400160405280600481526020016344656d6f60e01b8152506040518060400160405280600481526020016310d85c9960e21b81525081600090805190602001906200008692919062000198565b5080516200009c90600190602084019062000198565b505050620000b9620000b3620000cb60201b60201c565b620000cf565b620000c48162000121565b5062000395565b3390565b600a80546001600160a01b038381166001600160a01b0319831681179093556040519116919082907f8be0079c531659141344cd1fd0a4f28419497f9722a3daafe3b4186f6b6457e090600090a35050565b6200012b620000cb565b6001600160a01b03166200013e62000189565b6001600160a01b031614620001705760405162461bcd60e51b815260040162000167906200030d565b60405180910390fd5b80516200018590600c90602084019062000198565b5050565b600a546001600160a01b031690565b828054620001a69062000342565b90600052602060002090601f016020900481019282620001ca576000855562000215565b82601f10620001e557805160ff191683800117855562000215565b8280016001018555821562000215579182015b8281111562000215578251825591602001919060010190620001f8565b506200022392915062000227565b5090565b5b8082111562000223576000815560010162000228565b6000602080838503121562000251578182fd5b82516001600160401b038082111562000268578384fd5b818501915085601f8301126200027c578384fd5b8151818111156200029157620002916200037f565b604051601f8201601f1916810185018381118282101715620002b757620002b76200037f565b6040528181528382018501881015620002ce578586fd5b8592505b81831015620002f15783830185015181840186015291840191620002d2565b818311156200030257858583830101525b979650505050505050565b6020808252818101527f4f776e61626c653a2063616c6c6572206973206e6f7420746865206f776e6572604082015260600190565b6002810460018216806200035757607f821691505b602082108114156200037957634e487b7160e01b600052602260045260246000fd5b50919050565b634e487b7160e01b600052604160045260246000fd5b6122f880620003a56000396000f3fe60806040526004361061019c5760003560e01c806355f804b3116100ec57806395d89b411161008a578063c87b56dd11610064578063c87b56dd1461043b578063d547cfb71461045b578063e985e9c514610470578063f2fde38b146104905761019c565b806395d89b41146103e6578063a22cb465146103fb578063b88d4fde1461041b5761019c565b8063715018a6116100c6578063715018a61461037a5780638462151c1461038f5780638d859f3e146103bc5780638da5cb5b146103d15761019c565b806355f804b31461031a5780636352211e1461033a57806370a082311461035a5761019c565b806323b872dd116101595780633b4b1381116101335780633b4b1381146102bf5780633ccfd60b146102d257806342842e0e146102da5780634f6ccce7146102fa5761019c565b806323b872dd1461027f5780632f745c591461029f57806332cb6b0c146102485761019c565b806301ffc9a7146101a157806306fdde03146101d7578063081812fc146101f9578063095ea7b31461022657806309d42b301461024857806318160ddd1461026a575b600080fd5b3480156101ad57600080fd5b506101c16101bc36600461199c565b6104b0565b6040516101ce9190611b25565b60405180910390f35b3480156101e357600080fd5b506101ec6104c3565b6040516101ce9190611b30565b34801561020557600080fd5b50610219610214366004611a1a565b610555565b6040516101ce9190611a90565b34801561023257600080fd5b50610246610241366004611973565b6105a1565b005b34801561025457600080fd5b5061025d610639565b6040516101ce9190612152565b34801561027657600080fd5b5061025d61063e565b34801561028b57600080fd5b5061024661029a366004611885565b610644565b3480156102ab57600080fd5b5061025d6102ba366004611973565b61067c565b6102466102cd366004611a1a565b6106ce565b610246610787565b3480156102e657600080fd5b506102466102f5366004611885565b610864565b34801561030657600080fd5b5061025d610315366004611a1a565b61087f565b34801561032657600080fd5b506102466103353660046119d4565b6108da565b34801561034657600080fd5b50610219610355366004611a1a565b61092c565b34801561036657600080fd5b5061025d610375366004611839565b610961565b34801561038657600080fd5b506102466109a5565b34801561039b57600080fd5b506103af6103aa366004611839565b6109f0565b6040516101ce9190611ae1565b3480156103c857600080fd5b5061025d610aae565b3480156103dd57600080fd5b50610219610ab8565b3480156103f257600080fd5b506101ec610ac7565b34801561040757600080fd5b50610246610416366004611939565b610ad6565b34801561042757600080fd5b506102466104363660046118c0565b610ae8565b34801561044757600080fd5b506101ec610456366004611a1a565b610b27565b34801561046757600080fd5b506101ec610baa565b34801561047c57600080fd5b506101c161048b366004611853565b610c38565b34801561049c57600080fd5b506102466104ab366004611839565b610c66565b60006104bb82610cd7565b90505b919050565b6060600080546104d290612200565b80601f01602080910402602001604051908101604052809291908181526020018280546104fe90612200565b801561054b5780601f106105205761010080835404028352916020019161054b565b820191906000526020600020905b81548152906001019060200180831161052e57829003601f168201915b5050505050905090565b600061056082610cfc565b6105855760405162461bcd60e51b815260040161057c90611f31565b60405180910390fd5b506000908152600460205260409020546001600160a01b031690565b60006105ac8261092c565b9050806001600160a01b0316836001600160a01b031614156105e05760405162461bcd60e51b815260040161057c9061204a565b806001600160a01b03166105f2610d19565b6001600160a01b0316148061060e575061060e8161048b610d19565b61062a5760405162461bcd60e51b815260040161057c90611dd5565b6106348383610d1d565b505050565b600181565b60085490565b61065561064f610d19565b82610d8b565b6106715760405162461bcd60e51b815260040161057c906120b5565b610634838383610e10565b600061068783610961565b82106106a55760405162461bcd60e51b815260040161057c90611b6d565b506001600160a01b03919091166000908152600660209081526040808320938352929052205490565b60006106da600b610f3d565b905060016106e88284610f41565b11156107065760405162461bcd60e51b815260040161057c90611b43565b600082118015610717575060018211155b6107335760405162461bcd60e51b815260040161057c90611d44565b6107436509184e72a00083610f4d565b3410156107625760405162461bcd60e51b815260040161057c90611d02565b60005b8281101561063457610775610f59565b8061077f8161223b565b915050610765565b61078f610d19565b6001600160a01b03166107a0610ab8565b6001600160a01b0316146107c65760405162461bcd60e51b815260040161057c90611f7d565b47806107e45760405162461bcd60e51b815260040161057c90611efa565b6000336001600160a01b0316826040516107fd90611a8d565b60006040518083038185875af1925050503d806000811461083a576040519150601f19603f3d011682016040523d82523d6000602084013e61083f565b606091505b50509050806108605760405162461bcd60e51b815260040161057c9061208b565b5050565b61063483838360405180602001604052806000815250610ae8565b600061088961063e565b82106108a75760405162461bcd60e51b815260040161057c90612106565b600882815481106108c857634e487b7160e01b600052603260045260246000fd5b90600052602060002001549050919050565b6108e2610d19565b6001600160a01b03166108f3610ab8565b6001600160a01b0316146109195760405162461bcd60e51b815260040161057c90611f7d565b805161086090600c906020840190611719565b6000818152600260205260408120546001600160a01b0316806104bb5760405162461bcd60e51b815260040161057c90611e7c565b60006001600160a01b0382166109895760405162461bcd60e51b815260040161057c90611e32565b506001600160a01b031660009081526003602052604090205490565b6109ad610d19565b6001600160a01b03166109be610ab8565b6001600160a01b0316146109e45760405162461bcd60e51b815260040161057c90611f7d565b6109ee6000610f7b565b565b606060006109fd83610961565b905060008167ffffffffffffffff811115610a2857634e487b7160e01b600052604160045260246000fd5b604051908082528060200260200182016040528015610a51578160200160208202803683370190505b50905060005b82811015610aa657610a69858261067c565b828281518110610a8957634e487b7160e01b600052603260045260246000fd5b602090810291909101015280610a9e8161223b565b915050610a57565b509392505050565b6509184e72a00081565b600a546001600160a01b031690565b6060600180546104d290612200565b610860610ae1610d19565b8383610fcd565b610af9610af3610d19565b83610d8b565b610b155760405162461bcd60e51b815260040161057c906120b5565b610b2184848484611070565b50505050565b6060610b3282610cfc565b610b4e5760405162461bcd60e51b815260040161057c90611ffb565b6000610b586110a3565b90506000815111610b785760405180602001604052806000815250610ba3565b80610b82846110b2565b604051602001610b93929190611a5e565b6040516020818303038152906040525b9392505050565b600c8054610bb790612200565b80601f0160208091040260200160405190810160405280929190818152602001828054610be390612200565b8015610c305780601f10610c0557610100808354040283529160200191610c30565b820191906000526020600020905b815481529060010190602001808311610c1357829003601f168201915b505050505081565b6001600160a01b03918216600090815260056020908152604080832093909416825291909152205460ff1690565b610c6e610d19565b6001600160a01b0316610c7f610ab8565b6001600160a01b031614610ca55760405162461bcd60e51b815260040161057c90611f7d565b6001600160a01b038116610ccb5760405162461bcd60e51b815260040161057c90611c0a565b610cd481610f7b565b50565b60006001600160e01b0319821663780e9d6360e01b14806104bb57506104bb826111d8565b6000908152600260205260409020546001600160a01b0316151590565b3390565b600081815260046020526040902080546001600160a01b0319166001600160a01b0384169081179091558190610d528261092c565b6001600160a01b03167f8c5be1e5ebec7d5bd14f71427d1e84f3dd0314c0f7b2291e5b200ac8c7c3b92560405160405180910390a45050565b6000610d9682610cfc565b610db25760405162461bcd60e51b815260040161057c90611d89565b6000610dbd8361092c565b9050806001600160a01b0316846001600160a01b03161480610df85750836001600160a01b0316610ded84610555565b6001600160a01b0316145b80610e085750610e088185610c38565b949350505050565b826001600160a01b0316610e238261092c565b6001600160a01b031614610e495760405162461bcd60e51b815260040161057c90611fb2565b6001600160a01b038216610e6f5760405162461bcd60e51b815260040161057c90611c87565b610e7a838383611218565b610e85600082610d1d565b6001600160a01b0383166000908152600360205260408120805460019290610eae9084906121a6565b90915550506001600160a01b0382166000908152600360205260408120805460019290610edc90849061215b565b909155505060008181526002602052604080822080546001600160a01b0319166001600160a01b0386811691821790925591518493918716917fddf252ad1be2c89b69c2b068fc378daa952ba7f163c4a11628f55a4df523b3ef91a4505050565b5490565b6000610ba3828461215b565b6000610ba38284612187565b6000610f65600b610f3d565b9050610f713382611223565b610cd4600b61123d565b600a80546001600160a01b038381166001600160a01b0319831681179093556040519116919082907f8be0079c531659141344cd1fd0a4f28419497f9722a3daafe3b4186f6b6457e090600090a35050565b816001600160a01b0316836001600160a01b03161415610fff5760405162461bcd60e51b815260040161057c90611ccb565b6001600160a01b0383811660008181526005602090815260408083209487168084529490915290819020805460ff1916851515179055517f17307eab39ab6107e8899845ad3d59bd9653f200f220920489ca2b5937696c3190611063908590611b25565b60405180910390a3505050565b61107b848484610e10565b61108784848484611246565b610b215760405162461bcd60e51b815260040161057c90611bb8565b6060600c80546104d290612200565b6060816110d757506040805180820190915260018152600360fc1b60208201526104be565b8160005b811561110157806110eb8161223b565b91506110fa9050600a83612173565b91506110db565b60008167ffffffffffffffff81111561112a57634e487b7160e01b600052604160045260246000fd5b6040519080825280601f01601f191660200182016040528015611154576020820181803683370190505b508593509050815b83156111cf5761116d600a85612256565b61117890603061215b565b60f81b82611185836121e9565b925082815181106111a657634e487b7160e01b600052603260045260246000fd5b60200101906001600160f81b031916908160001a9053506111c8600a85612173565b935061115c565b50949350505050565b60006001600160e01b031982166380ac58cd60e01b148061120957506001600160e01b03198216635b5e139f60e01b145b806104bb57506104bb82611361565b61063483838361137a565b610860828260405180602001604052806000815250611403565b80546001019055565b600061125a846001600160a01b0316611436565b1561135657836001600160a01b031663150b7a02611276610d19565b8786866040518563ffffffff1660e01b81526004016112989493929190611aa4565b602060405180830381600087803b1580156112b257600080fd5b505af19250505080156112e2575060408051601f3d908101601f191682019092526112df918101906119b8565b60015b61133c573d808015611310576040519150601f19603f3d011682016040523d82523d6000602084013e611315565b606091505b5080516113345760405162461bcd60e51b815260040161057c90611bb8565b805181602001fd5b6001600160e01b031916630a85bd0160e11b149050610e08565b506001949350505050565b6001600160e01b031981166301ffc9a760e01b14919050565b611385838383610634565b6001600160a01b0383166113a15761139c8161143c565b6113c4565b816001600160a01b0316836001600160a01b0316146113c4576113c48382611480565b6001600160a01b0382166113e0576113db8161151d565b610634565b826001600160a01b0316826001600160a01b0316146106345761063482826115f6565b61140d838361163a565b61141a6000848484611246565b6106345760405162461bcd60e51b815260040161057c90611bb8565b3b151590565b600880546000838152600960205260408120829055600182018355919091527ff3f7a9fe364faab93b216da50a3214154f22a0a2b415b23a84c8169e8b636ee30155565b6000600161148d84610961565b61149791906121a6565b6000838152600760205260409020549091508082146114ea576001600160a01b03841660009081526006602090815260408083208584528252808320548484528184208190558352600790915290208190555b5060009182526007602090815260408084208490556001600160a01b039094168352600681528383209183525290812055565b60085460009061152f906001906121a6565b6000838152600960205260408120546008805493945090928490811061156557634e487b7160e01b600052603260045260246000fd5b90600052602060002001549050806008838154811061159457634e487b7160e01b600052603260045260246000fd5b60009182526020808320909101929092558281526009909152604080822084905585825281205560088054806115da57634e487b7160e01b600052603160045260246000fd5b6001900381819060005260206000200160009055905550505050565b600061160183610961565b6001600160a01b039093166000908152600660209081526040808320868452825280832085905593825260079052919091209190915550565b6001600160a01b0382166116605760405162461bcd60e51b815260040161057c90611ec5565b61166981610cfc565b156116865760405162461bcd60e51b815260040161057c90611c50565b61169260008383611218565b6001600160a01b03821660009081526003602052604081208054600192906116bb90849061215b565b909155505060008181526002602052604080822080546001600160a01b0319166001600160a01b03861690811790915590518392907fddf252ad1be2c89b69c2b068fc378daa952ba7f163c4a11628f55a4df523b3ef908290a45050565b82805461172590612200565b90600052602060002090601f016020900481019282611747576000855561178d565b82601f1061176057805160ff191683800117855561178d565b8280016001018555821561178d579182015b8281111561178d578251825591602001919060010190611772565b5061179992915061179d565b5090565b5b80821115611799576000815560010161179e565b600067ffffffffffffffff808411156117cd576117cd612296565b604051601f8501601f1916810160200182811182821017156117f1576117f1612296565b60405284815291508183850186101561180957600080fd5b8484602083013760006020868301015250509392505050565b80356001600160a01b03811681146104be57600080fd5b60006020828403121561184a578081fd5b610ba382611822565b60008060408385031215611865578081fd5b61186e83611822565b915061187c60208401611822565b90509250929050565b600080600060608486031215611899578081fd5b6118a284611822565b92506118b060208501611822565b9150604084013590509250925092565b600080600080608085870312156118d5578081fd5b6118de85611822565b93506118ec60208601611822565b925060408501359150606085013567ffffffffffffffff81111561190e578182fd5b8501601f8101871361191e578182fd5b61192d878235602084016117b2565b91505092959194509250565b6000806040838503121561194b578182fd5b61195483611822565b915060208301358015158114611968578182fd5b809150509250929050565b60008060408385031215611985578182fd5b61198e83611822565b946020939093013593505050565b6000602082840312156119ad578081fd5b8135610ba3816122ac565b6000602082840312156119c9578081fd5b8151610ba3816122ac565b6000602082840312156119e5578081fd5b813567ffffffffffffffff8111156119fb578182fd5b8201601f81018413611a0b578182fd5b610e08848235602084016117b2565b600060208284031215611a2b578081fd5b5035919050565b60008151808452611a4a8160208601602086016121bd565b601f01601f19169290920160200192915050565b60008351611a708184602088016121bd565b835190830190611a848183602088016121bd565b01949350505050565b90565b6001600160a01b0391909116815260200190565b6001600160a01b0385811682528416602082015260408101839052608060608201819052600090611ad790830184611a32565b9695505050505050565b6020808252825182820181905260009190848201906040850190845b81811015611b1957835183529284019291840191600101611afd565b50909695505050505050565b901515815260200190565b600060208252610ba36020830184611a32565b60208082526010908201526f4e6f7420656e6f756768204e4654732160801b604082015260600190565b6020808252602b908201527f455243373231456e756d657261626c653a206f776e657220696e646578206f7560408201526a74206f6620626f756e647360a81b606082015260800190565b60208082526032908201527f4552433732313a207472616e7366657220746f206e6f6e20455243373231526560408201527131b2b4bb32b91034b6b83632b6b2b73a32b960711b606082015260800190565b60208082526026908201527f4f776e61626c653a206e6577206f776e657220697320746865207a65726f206160408201526564647265737360d01b606082015260800190565b6020808252601c908201527f4552433732313a20746f6b656e20616c7265616479206d696e74656400000000604082015260600190565b60208082526024908201527f4552433732313a207472616e7366657220746f20746865207a65726f206164646040820152637265737360e01b606082015260800190565b60208082526019908201527f4552433732313a20617070726f766520746f2063616c6c657200000000000000604082015260600190565b60208082526022908201527f4e6f7420656e6f75676820657468657220746f207075726368617365204e4654604082015261399760f11b606082015260800190565b60208082526025908201527f43616e6e6f74206d696e7420737065636966696564206e756d626572206f662060408201526427232a399760d91b606082015260800190565b6020808252602c908201527f4552433732313a206f70657261746f7220717565727920666f72206e6f6e657860408201526b34b9ba32b73a103a37b5b2b760a11b606082015260800190565b60208082526038908201527f4552433732313a20617070726f76652063616c6c6572206973206e6f74206f7760408201527f6e6572206e6f7220617070726f76656420666f7220616c6c0000000000000000606082015260800190565b6020808252602a908201527f4552433732313a2062616c616e636520717565727920666f7220746865207a65604082015269726f206164647265737360b01b606082015260800190565b60208082526029908201527f4552433732313a206f776e657220717565727920666f72206e6f6e657869737460408201526832b73a103a37b5b2b760b91b606082015260800190565b6020808252818101527f4552433732313a206d696e7420746f20746865207a65726f2061646472657373604082015260600190565b60208082526019908201527f4e6f206574686572206c65667420746f20776974686472617700000000000000604082015260600190565b6020808252602c908201527f4552433732313a20617070726f76656420717565727920666f72206e6f6e657860408201526b34b9ba32b73a103a37b5b2b760a11b606082015260800190565b6020808252818101527f4f776e61626c653a2063616c6c6572206973206e6f7420746865206f776e6572604082015260600190565b60208082526029908201527f4552433732313a207472616e73666572206f6620746f6b656e2074686174206960408201526839903737ba1037bbb760b91b606082015260800190565b6020808252602f908201527f4552433732314d657461646174613a2055524920717565727920666f72206e6f60408201526e3732bc34b9ba32b73a103a37b5b2b760891b606082015260800190565b60208082526021908201527f4552433732313a20617070726f76616c20746f2063757272656e74206f776e656040820152603960f91b606082015260800190565b60208082526010908201526f2a3930b739b332b9103330b4b632b21760811b604082015260600190565b60208082526031908201527f4552433732313a207472616e736665722063616c6c6572206973206e6f74206f6040820152701ddb995c881b9bdc88185c1c1c9bdd9959607a1b606082015260800190565b6020808252602c908201527f455243373231456e756d657261626c653a20676c6f62616c20696e646578206f60408201526b7574206f6620626f756e647360a01b606082015260800190565b90815260200190565b6000821982111561216e5761216e61226a565b500190565b60008261218257612182612280565b500490565b60008160001904831182151516156121a1576121a161226a565b500290565b6000828210156121b8576121b861226a565b500390565b60005b838110156121d85781810151838201526020016121c0565b83811115610b215750506000910152565b6000816121f8576121f861226a565b506000190190565b60028104600182168061221457607f821691505b6020821081141561223557634e487b7160e01b600052602260045260246000fd5b50919050565b600060001982141561224f5761224f61226a565b5060010190565b60008261226557612265612280565b500690565b634e487b7160e01b600052601160045260246000fd5b634e487b7160e01b600052601260045260246000fd5b634e487b7160e01b600052604160045260246000fd5b6001600160e01b031981168114610cd457600080fdfea2646970667358221220918a7302a2774fcbf08065ee2c46efc6d01be5c7edaff3ea346740d773e9593164736f6c63430008000033",
  "linkReferences": {},
  "deployedLinkReferences": {}
}