{
  "_format": "hh-sol-artifact-1",
  "contractName": "Card",
  "sourceName": "contracts/Card.sol",
  "abi": [
    {
      "inputs": [
        {
          "internalType": "string",
          "name": "baseURI",
          "type": "string"
        }
      ],
      "stateMutability": "nonpayable",
      "type": "constructor"
    },
    {
      "anonymous": false,
      "inputs": [
        {
          "indexed": true,
          "internalType": "address",
          "name": "owner",
          "type": "address"
        },
        {
          "indexed": true,
          "internalType": "address",
          "name": "approved",
          "type": "address"
        },
        {
          "indexed": true,
          "internalType": "uint256",
          "name": "tokenId",
          "type": "uint256"
        }
      ],
      "name": "Approval",
      "type": "event"
    },
    {
      "anonymous": false,
      "inputs": [
        {
          "indexed": true,
          "internalType": "address",
          "name": "owner",
          "type": "address"
        },
        {
          "indexed": true,
          "internalType": "address",
          "name": "operator",
          "type": "address"
        },
        {
          "indexed": false,
          "internalType": "bool",
          "name": "approved",
          "type": "bool"
        }
      ],
      "name": "ApprovalForAll",
      "type": "event"
    },
    {
      "anonymous": false,
      "inputs": [
        {
          "indexed": true,
          "internalType": "address",
          "name": "previousOwner",
          "type": "address"
        },
        {
          "indexed": true,
          "internalType": "address",
          "name": "newOwner",
          "type": "address"
        }
      ],
      "name": "OwnershipTransferred",
      "type": "event"
    },
    {
      "anonymous": false,
      "inputs": [
        {
          "indexed": true,
          "internalType": "address",
          "name": "from",
          "type": "address"
        },
        {
          "indexed": true,
          "internalType": "address",
          "name": "to",
          "type": "address"
        },
        {
          "indexed": true,
          "internalType": "uint256",
          "name": "tokenId",
          "type": "uint256"
        }
      ],
      "name": "Transfer",
      "type": "event"
    },
    {
      "inputs": [],
      "name": "MAX_PER_MINT",
      "outputs": [
        {
          "internalType": "uint256",
          "name": "",
          "type": "uint256"
        }
      ],
      "stateMutability": "view",
      "type": "function"
    },
    {
      "inputs": [],
      "name": "MAX_SUPPLY",
      "outputs": [
        {
          "internalType": "uint256",
          "name": "",
          "type": "uint256"
        }
      ],
      "stateMutability": "view",
      "type": "function"
    },
    {
      "inputs": [],
      "name": "PRICE",
      "outputs": [
        {
          "internalType": "uint256",
          "name": "",
          "type": "uint256"
        }
      ],
      "stateMutability": "view",
      "type": "function"
    },
    {
      "inputs": [
        {
          "internalType": "address",
          "name": "to",
          "type": "address"
        },
        {
          "internalType": "uint256",
          "name": "tokenId",
          "type": "uint256"
        }
      ],
      "name": "approve",
      "outputs": [],
      "stateMutability": "nonpayable",
      "type": "function"
    },
    {
      "inputs": [
        {
          "internalType": "address",
          "name": "owner",
          "type": "address"
        }
      ],
      "name": "balanceOf",
      "outputs": [
        {
          "internalType": "uint256",
          "name": "",
          "type": "uint256"
        }
      ],
      "stateMutability": "view",
      "type": "function"
    },
    {
      "inputs": [],
      "name": "baseTokenURI",
      "outputs": [
        {
          "internalType": "string",
          "name": "",
          "type": "string"
        }
      ],
      "stateMutability": "view",
      "type": "function"
    },
    {
      "inputs": [
        {
          "internalType": "uint256",
          "name": "tokenId",
          "type": "uint256"
        }
      ],
      "name": "getApproved",
      "outputs": [
        {
          "internalType": "address",
          "name": "",
          "type": "address"
        }
      ],
      "stateMutability": "view",
      "type": "function"
    },
    {
      "inputs": [
        {
          "internalType": "address",
          "name": "owner",
          "type": "address"
        },
        {
          "internalType": "address",
          "name": "operator",
          "type": "address"
        }
      ],
      "name": "isApprovedForAll",
      "outputs": [
        {
          "internalType": "bool",
          "name": "",
          "type": "bool"
        }
      ],
      "stateMutability": "view",
      "type": "function"
    },
    {
      "inputs": [
        {
          "internalType": "uint256",
          "name": "_count",
          "type": "uint256"
        }
      ],
      "name": "mintNFTs",
      "outputs": [],
      "stateMutability": "payable",
      "type": "function"
    },
    {
      "inputs": [],
      "name": "name",
      "outputs": [
        {
          "internalType": "string",
          "name": "",
          "type": "string"
        }
      ],
      "stateMutability": "view",
      "type": "function"
    },
    {
      "inputs": [],
      "name": "owner",
      "outputs": [
        {
          "internalType": "address",
          "name": "",
          "type": "address"
        }
      ],
      "stateMutability": "view",
      "type": "function"
    },
    {
      "inputs": [
        {
          "internalType": "uint256",
          "name": "tokenId",
          "type": "uint256"
        }
      ],
      "name": "ownerOf",
      "outputs": [
        {
          "internalType": "address",
          "name": "",
          "type": "address"
        }
      ],
      "stateMutability": "view",
      "type": "function"
    },
    {
      "inputs": [],
      "name": "renounceOwnership",
      "outputs": [],
      "stateMutability": "nonpayable",
      "type": "function"
    },
    {
      "inputs": [
        {
          "internalType": "address",
          "name": "from",
          "type": "address"
        },
        {
          "internalType": "address",
          "name": "to",
          "type": "address"
        },
        {
          "internalType": "uint256",
          "name": "tokenId",
          "type": "uint256"
        }
      ],
      "name": "safeTransferFrom",
      "outputs": [],
      "stateMutability": "nonpayable",
      "type": "function"
    },
    {
      "inputs": [
        {
          "internalType": "address",
          "name": "from",
          "type": "address"
        },
        {
          "internalType": "address",
          "name": "to",
          "type": "address"
        },
        {
          "internalType": "uint256",
          "name": "tokenId",
          "type": "uint256"
        },
        {
          "internalType": "bytes",
          "name": "_data",
          "type": "bytes"
        }
      ],
      "name": "safeTransferFrom",
      "outputs": [],
      "stateMutability": "nonpayable",
      "type": "function"
    },
    {
      "inputs": [
        {
          "internalType": "address",
          "name": "operator",
          "type": "address"
        },
        {
          "internalType": "bool",
          "name": "approved",
          "type": "bool"
        }
      ],
      "name": "setApprovalForAll",
      "outputs": [],
      "stateMutability": "nonpayable",
      "type": "function"
    },
    {
      "inputs": [
        {
          "internalType": "string",
          "name": "_baseTokenURI",
          "type": "string"
        }
      ],
      "name": "setBaseURI",
      "outputs": [],
      "stateMutability": "nonpayable",
      "type": "function"
    },
    {
      "inputs": [
        {
          "internalType": "bytes4",
          "name": "interfaceId",
          "type": "bytes4"
        }
      ],
      "name": "supportsInterface",
      "outputs": [
        {
          "internalType": "bool",
          "name": "",
          "type": "bool"
        }
      ],
      "stateMutability": "view",
      "type": "function"
    },
    {
      "inputs": [],
      "name": "symbol",
      "outputs": [
        {
          "internalType": "string",
          "name": "",
          "type": "string"
        }
      ],
      "stateMutability": "view",
      "type": "function"
    },
    {
      "inputs": [
        {
          "internalType": "uint256",
          "name": "index",
          "type": "uint256"
        }
      ],
      "name": "tokenByIndex",
      "outputs": [
        {
          "internalType": "uint256",
          "name": "",
          "type": "uint256"
        }
      ],
      "stateMutability": "view",
      "type": "function"
    },
    {
      "inputs": [
        {
          "internalType": "address",
          "name": "owner",
          "type": "address"
        },
        {
          "internalType": "uint256",
          "name": "index",
          "type": "uint256"
        }
      ],
      "name": "tokenOfOwnerByIndex",
      "outputs": [
        {
          "internalType": "uint256",
          "name": "",
          "type": "uint256"
        }
      ],
      "stateMutability": "view",
      "type": "function"
    },
    {
      "inputs": [
        {
          "internalType": "uint256",
          "name": "tokenId",
          "type": "uint256"
        }
      ],
      "name": "tokenURI",
      "outputs": [
        {
          "internalType": "string",
          "name": "",
          "type": "string"
        }
      ],
      "stateMutability": "view",
      "type": "function"
    },
    {
      "inputs": [
        {
          "internalType": "address",
          "name": "_owner",
          "type": "address"
        }
      ],
      "name": "tokensOfOwner",
      "outputs": [
        {
          "internalType": "uint256[]",
          "name": "",
          "type": "uint256[]"
        }
      ],
      "stateMutability": "view",
      "type": "function"
    },
    {
      "inputs": [],
      "name": "totalSupply",
      "outputs": [
        {
          "internalType": "uint256",
          "name": "",
          "type": "uint256"
        }
      ],
      "stateMutability": "view",
      "type": "function"
    },
    {
      "inputs": [
        {
          "internalType": "address",
          "name": "from",
          "type": "address"
        },
        {
          "internalType": "address",
          "name": "to",
          "type": "address"
        },
        {
          "internalType": "uint256",
          "name": "tokenId",
          "type": "uint256"
        }
      ],
      "name": "transferFrom",
      "outputs": [],
      "stateMutability": "nonpayable",
      "type": "function"
    },
    {
      "inputs": [
        {
          "internalType": "address",
          "name": "newOwner",
          "type": "address"
        }
      ],
      "name": "transferOwnership",
      "outputs": [],
      "stateMutability": "nonpayable",
      "type": "function"
    },
    {
      "inputs": [],
      "name": "withdraw",
      "outputs": [],
      "stateMutability": "payable",
      "type": "function"
    }
  ],
  "bytecode": "0x60806040523480156200001157600080fd5b50604051620026653803806200266583398101604081905262000034916200023e565b6040518060400160405280600481526020016344656d6f60e01b8152506040518060400160405280600481526020016310d85c9960e21b81525081600090805190602001906200008692919062000198565b5080516200009c90600190602084019062000198565b505050620000b9620000b3620000cb60201b60201c565b620000cf565b620000c48162000121565b5062000395565b3390565b600a80546001600160a01b038381166001600160a01b0319831681179093556040519116919082907f8be0079c531659141344cd1fd0a4f28419497f9722a3daafe3b4186f6b6457e090600090a35050565b6200012b620000cb565b6001600160a01b03166200013e62000189565b6001600160a01b031614620001705760405162461bcd60e51b815260040162000167906200030d565b60405180910390fd5b80516200018590600c90602084019062000198565b5050565b600a546001600160a01b031690565b828054620001a69062000342565b90600052602060002090601f016020900481019282620001ca576000855562000215565b82601f10620001e557805160ff191683800117855562000215565b8280016001018555821562000215579182015b8281111562000215578251825591602001919060010190620001f8565b506200022392915062000227565b5090565b5b8082111562000223576000815560010162000228565b6000602080838503121562000251578182fd5b82516001600160401b038082111562000268578384fd5b818501915085601f8301126200027c578384fd5b8151818111156200029157620002916200037f565b604051601f8201601f1916810185018381118282101715620002b757620002b76200037f565b6040528181528382018501881015620002ce578586fd5b8592505b81831015620002f15783830185015181840186015291840191620002d2565b818311156200030257858583830101525b979650505050505050565b6020808252818101527f4f776e61626c653a2063616c6c6572206973206e6f7420746865206f776e6572604082015260600190565b6002810460018216806200035757607f821691505b602082108114156200037957634e487b7160e01b600052602260045260246000fd5b50919050565b634e487b7160e01b600052604160045260246000fd5b6122c080620003a56000396000f3fe60806040526004361061019c5760003560e01c806355f804b3116100ec57806395d89b411161008a578063c87b56dd11610064578063c87b56dd1461043b578063d547cfb71461045b578063e985e9c514610470578063f2fde38b146104905761019c565b806395d89b41146103e6578063a22cb465146103fb578063b88d4fde1461041b5761019c565b8063715018a6116100c6578063715018a61461037a5780638462151c1461038f5780638d859f3e146103bc5780638da5cb5b146103d15761019c565b806355f804b31461031a5780636352211e1461033a57806370a082311461035a5761019c565b806323b872dd116101595780633b4b1381116101335780633b4b1381146102bf5780633ccfd60b146102d257806342842e0e146102da5780634f6ccce7146102fa5761019c565b806323b872dd1461027f5780632f745c591461029f57806332cb6b0c146102485761019c565b806301ffc9a7146101a157806306fdde03146101d7578063081812fc146101f9578063095ea7b31461022657806309d42b301461024857806318160ddd1461026a575b600080fd5b3480156101ad57600080fd5b506101c16101bc36600461197b565b6104b0565b6040516101ce9190611b04565b60405180910390f35b3480156101e357600080fd5b506101ec6104dd565b6040516101ce9190611b0f565b34801561020557600080fd5b506102196102143660046119f9565b61056f565b6040516101ce9190611a6f565b34801561023257600080fd5b50610246610241366004611952565b6105bb565b005b34801561025457600080fd5b5061025d610653565b6040516101ce9190612131565b34801561027657600080fd5b5061025d610658565b34801561028b57600080fd5b5061024661029a366004611864565b61065e565b3480156102ab57600080fd5b5061025d6102ba366004611952565b610696565b6102466102cd3660046119f9565b6106e8565b6102466107a1565b3480156102e657600080fd5b506102466102f5366004611864565b61087e565b34801561030657600080fd5b5061025d6103153660046119f9565b610899565b34801561032657600080fd5b506102466103353660046119b3565b6108f4565b34801561034657600080fd5b506102196103553660046119f9565b610946565b34801561036657600080fd5b5061025d610375366004611818565b61097b565b34801561038657600080fd5b506102466109bf565b34801561039b57600080fd5b506103af6103aa366004611818565b610a0a565b6040516101ce9190611ac0565b3480156103c857600080fd5b5061025d610ac8565b3480156103dd57600080fd5b50610219610ad2565b3480156103f257600080fd5b506101ec610ae1565b34801561040757600080fd5b50610246610416366004611918565b610af0565b34801561042757600080fd5b5061024661043636600461189f565b610b02565b34801561044757600080fd5b506101ec6104563660046119f9565b610b41565b34801561046757600080fd5b506101ec610bc4565b34801561047c57600080fd5b506101c161048b366004611832565b610c52565b34801561049c57600080fd5b506102466104ab366004611818565b610c80565b60006001600160e01b0319821663780e9d6360e01b14806104d557506104d582610cf1565b90505b919050565b6060600080546104ec906121c8565b80601f0160208091040260200160405190810160405280929190818152602001828054610518906121c8565b80156105655780601f1061053a57610100808354040283529160200191610565565b820191906000526020600020905b81548152906001019060200180831161054857829003601f168201915b5050505050905090565b600061057a82610d31565b61059f5760405162461bcd60e51b815260040161059690611f10565b60405180910390fd5b506000908152600460205260409020546001600160a01b031690565b60006105c682610946565b9050806001600160a01b0316836001600160a01b031614156105fa5760405162461bcd60e51b815260040161059690612029565b806001600160a01b031661060c610d4e565b6001600160a01b0316148061062857506106288161048b610d4e565b6106445760405162461bcd60e51b815260040161059690611db4565b61064e8383610d52565b505050565b600181565b60085490565b61066f610669610d4e565b82610dc0565b61068b5760405162461bcd60e51b815260040161059690612094565b61064e838383610e45565b60006106a18361097b565b82106106bf5760405162461bcd60e51b815260040161059690611b4c565b506001600160a01b03919091166000908152600660209081526040808320938352929052205490565b60006106f4600b610f72565b905060016107028284610f76565b11156107205760405162461bcd60e51b815260040161059690611b22565b600082118015610731575060018211155b61074d5760405162461bcd60e51b815260040161059690611d23565b61075d655af3107a400083610f82565b34101561077c5760405162461bcd60e51b815260040161059690611ce1565b60005b8281101561064e5761078f610f8e565b8061079981612203565b91505061077f565b6107a9610d4e565b6001600160a01b03166107ba610ad2565b6001600160a01b0316146107e05760405162461bcd60e51b815260040161059690611f5c565b47806107fe5760405162461bcd60e51b815260040161059690611ed9565b6000336001600160a01b03168260405161081790611a6c565b60006040518083038185875af1925050503d8060008114610854576040519150601f19603f3d011682016040523d82523d6000602084013e610859565b606091505b505090508061087a5760405162461bcd60e51b81526004016105969061206a565b5050565b61064e83838360405180602001604052806000815250610b02565b60006108a3610658565b82106108c15760405162461bcd60e51b8152600401610596906120e5565b600882815481106108e257634e487b7160e01b600052603260045260246000fd5b90600052602060002001549050919050565b6108fc610d4e565b6001600160a01b031661090d610ad2565b6001600160a01b0316146109335760405162461bcd60e51b815260040161059690611f5c565b805161087a90600c9060208401906116f8565b6000818152600260205260408120546001600160a01b0316806104d55760405162461bcd60e51b815260040161059690611e5b565b60006001600160a01b0382166109a35760405162461bcd60e51b815260040161059690611e11565b506001600160a01b031660009081526003602052604090205490565b6109c7610d4e565b6001600160a01b03166109d8610ad2565b6001600160a01b0316146109fe5760405162461bcd60e51b815260040161059690611f5c565b610a086000610fb0565b565b60606000610a178361097b565b905060008167ffffffffffffffff811115610a4257634e487b7160e01b600052604160045260246000fd5b604051908082528060200260200182016040528015610a6b578160200160208202803683370190505b50905060005b82811015610ac057610a838582610696565b828281518110610aa357634e487b7160e01b600052603260045260246000fd5b602090810291909101015280610ab881612203565b915050610a71565b509392505050565b655af3107a400081565b600a546001600160a01b031690565b6060600180546104ec906121c8565b61087a610afb610d4e565b8383611002565b610b13610b0d610d4e565b83610dc0565b610b2f5760405162461bcd60e51b815260040161059690612094565b610b3b848484846110a5565b50505050565b6060610b4c82610d31565b610b685760405162461bcd60e51b815260040161059690611fda565b6000610b726110d8565b90506000815111610b925760405180602001604052806000815250610bbd565b80610b9c846110e7565b604051602001610bad929190611a3d565b6040516020818303038152906040525b9392505050565b600c8054610bd1906121c8565b80601f0160208091040260200160405190810160405280929190818152602001828054610bfd906121c8565b8015610c4a5780601f10610c1f57610100808354040283529160200191610c4a565b820191906000526020600020905b815481529060010190602001808311610c2d57829003601f168201915b505050505081565b6001600160a01b03918216600090815260056020908152604080832093909416825291909152205460ff1690565b610c88610d4e565b6001600160a01b0316610c99610ad2565b6001600160a01b031614610cbf5760405162461bcd60e51b815260040161059690611f5c565b6001600160a01b038116610ce55760405162461bcd60e51b815260040161059690611be9565b610cee81610fb0565b50565b60006001600160e01b031982166380ac58cd60e01b1480610d2257506001600160e01b03198216635b5e139f60e01b145b806104d557506104d582611202565b6000908152600260205260409020546001600160a01b0316151590565b3390565b600081815260046020526040902080546001600160a01b0319166001600160a01b0384169081179091558190610d8782610946565b6001600160a01b03167f8c5be1e5ebec7d5bd14f71427d1e84f3dd0314c0f7b2291e5b200ac8c7c3b92560405160405180910390a45050565b6000610dcb82610d31565b610de75760405162461bcd60e51b815260040161059690611d68565b6000610df283610946565b9050806001600160a01b0316846001600160a01b03161480610e2d5750836001600160a01b0316610e228461056f565b6001600160a01b0316145b80610e3d5750610e3d8185610c52565b949350505050565b826001600160a01b0316610e5882610946565b6001600160a01b031614610e7e5760405162461bcd60e51b815260040161059690611f91565b6001600160a01b038216610ea45760405162461bcd60e51b815260040161059690611c66565b610eaf83838361121b565b610eba600082610d52565b6001600160a01b0383166000908152600360205260408120805460019290610ee3908490612185565b90915550506001600160a01b0382166000908152600360205260408120805460019290610f1190849061213a565b909155505060008181526002602052604080822080546001600160a01b0319166001600160a01b0386811691821790925591518493918716917fddf252ad1be2c89b69c2b068fc378daa952ba7f163c4a11628f55a4df523b3ef91a4505050565b5490565b6000610bbd828461213a565b6000610bbd8284612166565b6000610f9a600b610f72565b9050610fa633826112a4565b610cee600b6112be565b600a80546001600160a01b038381166001600160a01b0319831681179093556040519116919082907f8be0079c531659141344cd1fd0a4f28419497f9722a3daafe3b4186f6b6457e090600090a35050565b816001600160a01b0316836001600160a01b031614156110345760405162461bcd60e51b815260040161059690611caa565b6001600160a01b0383811660008181526005602090815260408083209487168084529490915290819020805460ff1916851515179055517f17307eab39ab6107e8899845ad3d59bd9653f200f220920489ca2b5937696c3190611098908590611b04565b60405180910390a3505050565b6110b0848484610e45565b6110bc848484846112c7565b610b3b5760405162461bcd60e51b815260040161059690611b97565b6060600c80546104ec906121c8565b60608161110c57506040805180820190915260018152600360fc1b60208201526104d8565b8160005b8115611136578061112081612203565b915061112f9050600a83612152565b9150611110565b60008167ffffffffffffffff81111561115f57634e487b7160e01b600052604160045260246000fd5b6040519080825280601f01601f191660200182016040528015611189576020820181803683370190505b5090505b8415610e3d5761119e600183612185565b91506111ab600a8661221e565b6111b690603061213a565b60f81b8183815181106111d957634e487b7160e01b600052603260045260246000fd5b60200101906001600160f81b031916908160001a9053506111fb600a86612152565b945061118d565b6001600160e01b031981166301ffc9a760e01b14919050565b61122683838361064e565b6001600160a01b0383166112425761123d816113e2565b611265565b816001600160a01b0316836001600160a01b031614611265576112658382611426565b6001600160a01b0382166112815761127c816114c3565b61064e565b826001600160a01b0316826001600160a01b03161461064e5761064e828261159c565b61087a8282604051806020016040528060008152506115e0565b80546001019055565b60006112db846001600160a01b0316611613565b156113d757836001600160a01b031663150b7a026112f7610d4e565b8786866040518563ffffffff1660e01b81526004016113199493929190611a83565b602060405180830381600087803b15801561133357600080fd5b505af1925050508015611363575060408051601f3d908101601f1916820190925261136091810190611997565b60015b6113bd573d808015611391576040519150601f19603f3d011682016040523d82523d6000602084013e611396565b606091505b5080516113b55760405162461bcd60e51b815260040161059690611b97565b805181602001fd5b6001600160e01b031916630a85bd0160e11b149050610e3d565b506001949350505050565b600880546000838152600960205260408120829055600182018355919091527ff3f7a9fe364faab93b216da50a3214154f22a0a2b415b23a84c8169e8b636ee30155565b600060016114338461097b565b61143d9190612185565b600083815260076020526040902054909150808214611490576001600160a01b03841660009081526006602090815260408083208584528252808320548484528184208190558352600790915290208190555b5060009182526007602090815260408084208490556001600160a01b039094168352600681528383209183525290812055565b6008546000906114d590600190612185565b6000838152600960205260408120546008805493945090928490811061150b57634e487b7160e01b600052603260045260246000fd5b90600052602060002001549050806008838154811061153a57634e487b7160e01b600052603260045260246000fd5b600091825260208083209091019290925582815260099091526040808220849055858252812055600880548061158057634e487b7160e01b600052603160045260246000fd5b6001900381819060005260206000200160009055905550505050565b60006115a78361097b565b6001600160a01b039093166000908152600660209081526040808320868452825280832085905593825260079052919091209190915550565b6115ea8383611619565b6115f760008484846112c7565b61064e5760405162461bcd60e51b815260040161059690611b97565b3b151590565b6001600160a01b03821661163f5760405162461bcd60e51b815260040161059690611ea4565b61164881610d31565b156116655760405162461bcd60e51b815260040161059690611c2f565b6116716000838361121b565b6001600160a01b038216600090815260036020526040812080546001929061169a90849061213a565b909155505060008181526002602052604080822080546001600160a01b0319166001600160a01b03861690811790915590518392907fddf252ad1be2c89b69c2b068fc378daa952ba7f163c4a11628f55a4df523b3ef908290a45050565b828054611704906121c8565b90600052602060002090601f016020900481019282611726576000855561176c565b82601f1061173f57805160ff191683800117855561176c565b8280016001018555821561176c579182015b8281111561176c578251825591602001919060010190611751565b5061177892915061177c565b5090565b5b80821115611778576000815560010161177d565b600067ffffffffffffffff808411156117ac576117ac61225e565b604051601f8501601f1916810160200182811182821017156117d0576117d061225e565b6040528481529150818385018610156117e857600080fd5b8484602083013760006020868301015250509392505050565b80356001600160a01b03811681146104d857600080fd5b600060208284031215611829578081fd5b610bbd82611801565b60008060408385031215611844578081fd5b61184d83611801565b915061185b60208401611801565b90509250929050565b600080600060608486031215611878578081fd5b61188184611801565b925061188f60208501611801565b9150604084013590509250925092565b600080600080608085870312156118b4578081fd5b6118bd85611801565b93506118cb60208601611801565b925060408501359150606085013567ffffffffffffffff8111156118ed578182fd5b8501601f810187136118fd578182fd5b61190c87823560208401611791565b91505092959194509250565b6000806040838503121561192a578182fd5b61193383611801565b915060208301358015158114611947578182fd5b809150509250929050565b60008060408385031215611964578182fd5b61196d83611801565b946020939093013593505050565b60006020828403121561198c578081fd5b8135610bbd81612274565b6000602082840312156119a8578081fd5b8151610bbd81612274565b6000602082840312156119c4578081fd5b813567ffffffffffffffff8111156119da578182fd5b8201601f810184136119ea578182fd5b610e3d84823560208401611791565b600060208284031215611a0a578081fd5b5035919050565b60008151808452611a2981602086016020860161219c565b601f01601f19169290920160200192915050565b60008351611a4f81846020880161219c565b835190830190611a6381836020880161219c565b01949350505050565b90565b6001600160a01b0391909116815260200190565b6001600160a01b0385811682528416602082015260408101839052608060608201819052600090611ab690830184611a11565b9695505050505050565b6020808252825182820181905260009190848201906040850190845b81811015611af857835183529284019291840191600101611adc565b50909695505050505050565b901515815260200190565b600060208252610bbd6020830184611a11565b60208082526010908201526f4e6f7420656e6f756768204e4654732160801b604082015260600190565b6020808252602b908201527f455243373231456e756d657261626c653a206f776e657220696e646578206f7560408201526a74206f6620626f756e647360a81b606082015260800190565b60208082526032908201527f4552433732313a207472616e7366657220746f206e6f6e20455243373231526560408201527131b2b4bb32b91034b6b83632b6b2b73a32b960711b606082015260800190565b60208082526026908201527f4f776e61626c653a206e6577206f776e657220697320746865207a65726f206160408201526564647265737360d01b606082015260800190565b6020808252601c908201527f4552433732313a20746f6b656e20616c7265616479206d696e74656400000000604082015260600190565b60208082526024908201527f4552433732313a207472616e7366657220746f20746865207a65726f206164646040820152637265737360e01b606082015260800190565b60208082526019908201527f4552433732313a20617070726f766520746f2063616c6c657200000000000000604082015260600190565b60208082526022908201527f4e6f7420656e6f75676820657468657220746f207075726368617365204e4654604082015261399760f11b606082015260800190565b60208082526025908201527f43616e6e6f74206d696e7420737065636966696564206e756d626572206f662060408201526427232a399760d91b606082015260800190565b6020808252602c908201527f4552433732313a206f70657261746f7220717565727920666f72206e6f6e657860408201526b34b9ba32b73a103a37b5b2b760a11b606082015260800190565b60208082526038908201527f4552433732313a20617070726f76652063616c6c6572206973206e6f74206f7760408201527f6e6572206e6f7220617070726f76656420666f7220616c6c0000000000000000606082015260800190565b6020808252602a908201527f4552433732313a2062616c616e636520717565727920666f7220746865207a65604082015269726f206164647265737360b01b606082015260800190565b60208082526029908201527f4552433732313a206f776e657220717565727920666f72206e6f6e657869737460408201526832b73a103a37b5b2b760b91b606082015260800190565b6020808252818101527f4552433732313a206d696e7420746f20746865207a65726f2061646472657373604082015260600190565b60208082526019908201527f4e6f206574686572206c65667420746f20776974686472617700000000000000604082015260600190565b6020808252602c908201527f4552433732313a20617070726f76656420717565727920666f72206e6f6e657860408201526b34b9ba32b73a103a37b5b2b760a11b606082015260800190565b6020808252818101527f4f776e61626c653a2063616c6c6572206973206e6f7420746865206f776e6572604082015260600190565b60208082526029908201527f4552433732313a207472616e73666572206f6620746f6b656e2074686174206960408201526839903737ba1037bbb760b91b606082015260800190565b6020808252602f908201527f4552433732314d657461646174613a2055524920717565727920666f72206e6f60408201526e3732bc34b9ba32b73a103a37b5b2b760891b606082015260800190565b60208082526021908201527f4552433732313a20617070726f76616c20746f2063757272656e74206f776e656040820152603960f91b606082015260800190565b60208082526010908201526f2a3930b739b332b9103330b4b632b21760811b604082015260600190565b60208082526031908201527f4552433732313a207472616e736665722063616c6c6572206973206e6f74206f6040820152701ddb995c881b9bdc88185c1c1c9bdd9959607a1b606082015260800190565b6020808252602c908201527f455243373231456e756d657261626c653a20676c6f62616c20696e646578206f60408201526b7574206f6620626f756e647360a01b606082015260800190565b90815260200190565b6000821982111561214d5761214d612232565b500190565b60008261216157612161612248565b500490565b600081600019048311821515161561218057612180612232565b500290565b60008282101561219757612197612232565b500390565b60005b838110156121b757818101518382015260200161219f565b83811115610b3b5750506000910152565b6002810460018216806121dc57607f821691505b602082108114156121fd57634e487b7160e01b600052602260045260246000fd5b50919050565b600060001982141561221757612217612232565b5060010190565b60008261222d5761222d612248565b500690565b634e487b7160e01b600052601160045260246000fd5b634e487b7160e01b600052601260045260246000fd5b634e487b7160e01b600052604160045260246000fd5b6001600160e01b031981168114610cee57600080fdfea2646970667358221220f2bb3b4de72cd09b4ec218fd2261c54310a4a4b0088551d7e101b715feba71d964736f6c63430008000033",
  "linkReferences": {},
  "deployedLinkReferences": {}
}